{
  "_format": "hh-sol-artifact-1",
  "contractName": "BridgeSpender",
  "sourceName": "contracts/BridgeSpender.sol",
  "abi": [
    {
      "inputs": [],
      "name": "spend",
      "outputs": [
        {
          "internalType": "string",
          "name": "",
          "type": "string"
        }
      ],
      "stateMutability": "pure",
      "type": "function"
    }
  ],
  "bytecode": "0x608060405234801561001057600080fd5b5060ed8061001f6000396000f3fe6080604052348015600f57600080fd5b506004361060285760003560e01c806345615bcc14602d575b600080fd5b6040805180820182526015815274427269646765205370656e6465722041637469766560581b6020820152905160629190606b565b60405180910390f35b600060208083528351808285015260005b81811015609657858101830151858201604001528201607c565b506000604082860101526040601f19601f830116850101925050509291505056fea2646970667358221220022899167934e29833e651c39de813bb1bfee792cc64836635a6303748a3cb8264736f6c63430008140033",
  "linkReferences": {},
  "deployedLinkReferences": {}
}