{
  "_format": "hh-sol-artifact-1",
  "contractName": "DexSpender",
  "sourceName": "contracts/DexSpender.sol",
  "abi": [
    {
      "inputs": [],
      "name": "spend",
      "outputs": [
        {
          "internalType": "string",
          "name": "",
          "type": "string"
        }
      ],
      "stateMutability": "pure",
      "type": "function"
    }
  ],
  "bytecode": "0x608060405234801561001057600080fd5b5060ea8061001f6000396000f3fe6080604052348015600f57600080fd5b506004361060285760003560e01c806345615bcc14602d575b600080fd5b6040805180820182526012815271444558205370656e6465722041637469766560701b60208201529051605f91906068565b60405180910390f35b600060208083528351808285015260005b818110156093578581018301518582016040015282016079565b506000604082860101526040601f19601f830116850101925050509291505056fea264697066735822122041d7a43244962ad958286187f16755bc53151ca0f17dfecc11d685ab6bf2093964736f6c63430008140033",
  "linkReferences": {},
  "deployedLinkReferences": {}
}